{
  "contractName": "MasterContract",
  "abi": [
    {
      "constant": true,
      "inputs": [
        {
          "internalType": "address",
          "name": "",
          "type": "address"
        }
      ],
      "name": "storeUser",
      "outputs": [
        {
          "internalType": "string",
          "name": "name",
          "type": "string"
        },
        {
          "internalType": "string",
          "name": "email",
          "type": "string"
        },
        {
          "internalType": "bool",
          "name": "status",
          "type": "bool"
        },
        {
          "internalType": "string",
          "name": "publicKey",
          "type": "string"
        }
      ],
      "payable": false,
      "stateMutability": "view",
      "type": "function"
    },
    {
      "constant": false,
      "inputs": [
        {
          "internalType": "string",
          "name": "userName",
          "type": "string"
        },
        {
          "internalType": "string",
          "name": "userEmail",
          "type": "string"
        },
        {
          "internalType": "string",
          "name": "publicKey",
          "type": "string"
        }
      ],
      "name": "registerUser",
      "outputs": [],
      "payable": false,
      "stateMutability": "nonpayable",
      "type": "function"
    },
    {
      "constant": true,
      "inputs": [],
      "name": "getAllUsers",
      "outputs": [
        {
          "internalType": "address[]",
          "name": "users",
          "type": "address[]"
        }
      ],
      "payable": false,
      "stateMutability": "view",
      "type": "function"
    }
  ],
  "bytecode": "0x608060405234801561001057600080fd5b50610aac806100206000396000f3fe608060405234801561001057600080fd5b50600436106100415760003560e01c8063d637dcfa14610046578063d7cab33814610062578063e2842d7914610095575b600080fd5b610060600480360361005b91908101906106d3565b6100b3565b005b61007c600480360361007791908101906106aa565b610309565b60405161008c9493929190610899565b60405180910390f35b61009d61050e565b6040516100aa9190610877565b60405180910390f35b6000803373ffffffffffffffffffffffffffffffffffffffff1673ffffffffffffffffffffffffffffffffffffffff16815260200190815260200160002060020160009054906101000a900460ff1615610142576040517f08c379a0000000000000000000000000000000000000000000000000000000008152600401610139906108f3565b60405180910390fd5b826000803373ffffffffffffffffffffffffffffffffffffffff1673ffffffffffffffffffffffffffffffffffffffff168152602001908152602001600020600001908051906020019061019792919061059c565b50816000803373ffffffffffffffffffffffffffffffffffffffff1673ffffffffffffffffffffffffffffffffffffffff16815260200190815260200160002060010190805190602001906101ed92919061059c565b50806000803373ffffffffffffffffffffffffffffffffffffffff1673ffffffffffffffffffffffffffffffffffffffff168152602001908152602001600020600301908051906020019061024392919061059c565b5060016000803373ffffffffffffffffffffffffffffffffffffffff1673ffffffffffffffffffffffffffffffffffffffff16815260200190815260200160002060020160006101000a81548160ff02191690831515021790555060013390806001815401808255809150509060018203906000526020600020016000909192909190916101000a81548173ffffffffffffffffffffffffffffffffffffffff021916908373ffffffffffffffffffffffffffffffffffffffff16021790555050505050565b6000602052806000526040600020600091509050806000018054600181600116156101000203166002900480601f0160208091040260200160405190810160405280929190818152602001828054600181600116156101000203166002900480156103b55780601f1061038a576101008083540402835291602001916103b5565b820191906000526020600020905b81548152906001019060200180831161039857829003601f168201915b505050505090806001018054600181600116156101000203166002900480601f0160208091040260200160405190810160405280929190818152602001828054600181600116156101000203166002900480156104535780601f1061042857610100808354040283529160200191610453565b820191906000526020600020905b81548152906001019060200180831161043657829003601f168201915b5050505050908060020160009054906101000a900460ff1690806003018054600181600116156101000203166002900480601f0160208091040260200160405190810160405280929190818152602001828054600181600116156101000203166002900480156105045780601f106104d957610100808354040283529160200191610504565b820191906000526020600020905b8154815290600101906020018083116104e757829003601f168201915b5050505050905084565b6060600180548060200260200160405190810160405280929190818152602001828054801561059257602002820191906000526020600020905b8160009054906101000a900473ffffffffffffffffffffffffffffffffffffffff1673ffffffffffffffffffffffffffffffffffffffff1681526020019060010190808311610548575b5050505050905090565b828054600181600116156101000203166002900490600052602060002090601f016020900481019282601f106105dd57805160ff191683800117855561060b565b8280016001018555821561060b579182015b8281111561060a5782518255916020019190600101906105ef565b5b509050610618919061061c565b5090565b61063e91905b8082111561063a576000816000905550600101610622565b5090565b90565b60008135905061065081610a52565b92915050565b600082601f83011261066757600080fd5b813561067a61067582610940565b610913565b9150808252602083016020830185838301111561069657600080fd5b6106a18382846109ff565b50505092915050565b6000602082840312156106bc57600080fd5b60006106ca84828501610641565b91505092915050565b6000806000606084860312156106e857600080fd5b600084013567ffffffffffffffff81111561070257600080fd5b61070e86828701610656565b935050602084013567ffffffffffffffff81111561072b57600080fd5b61073786828701610656565b925050604084013567ffffffffffffffff81111561075457600080fd5b61076086828701610656565b9150509250925092565b60006107768383610782565b60208301905092915050565b61078b816109c1565b82525050565b600061079c8261097c565b6107a6818561099f565b93506107b18361096c565b8060005b838110156107e25781516107c9888261076a565b97506107d483610992565b9250506001810190506107b5565b5085935050505092915050565b6107f8816109d3565b82525050565b600061080982610987565b61081381856109b0565b9350610823818560208601610a0e565b61082c81610a41565b840191505092915050565b60006108446020836109b0565b91507f53686f756c64206e6f742062652072656769737465726564206265666f7265216000830152602082019050919050565b600060208201905081810360008301526108918184610791565b905092915050565b600060808201905081810360008301526108b381876107fe565b905081810360208301526108c781866107fe565b90506108d660408301856107ef565b81810360608301526108e881846107fe565b905095945050505050565b6000602082019050818103600083015261090c81610837565b9050919050565b6000604051905081810181811067ffffffffffffffff8211171561093657600080fd5b8060405250919050565b600067ffffffffffffffff82111561095757600080fd5b601f19601f8301169050602081019050919050565b6000819050602082019050919050565b600081519050919050565b600081519050919050565b6000602082019050919050565b600082825260208201905092915050565b600082825260208201905092915050565b60006109cc826109df565b9050919050565b60008115159050919050565b600073ffffffffffffffffffffffffffffffffffffffff82169050919050565b82818337600083830152505050565b60005b83811015610a2c578082015181840152602081019050610a11565b83811115610a3b576000848401525b50505050565b6000601f19601f8301169050919050565b610a5b816109c1565b8114610a6657600080fd5b5056fea365627a7a723158200066894e0a523fc2c393fcc73dcc845a3621d672de8f9b71d6ff4f4ce5d8b0b56c6578706572696d656e74616cf564736f6c63430005100040",
  "source": "pragma solidity >=0.5.0 <0.7.0;\npragma experimental ABIEncoderV2;\n\ncontract MasterContract {\n\n    struct UserSchema {\n        string name;\n        string email;\n        bool status;\n        string publicKey;\n    }\n\n    // Map to store all the registered users\n    mapping(address=>UserSchema) public storeUser;\n\n    // array to store registered users address\n    address[] registeredUsers;\n\n    /**\n     * @dev Register User\n     * @param userName: User Name\n     * @param userEmail: User mail id\n     */\n    function registerUser(\n        string memory userName,\n        string memory userEmail,\n        string memory publicKey\n    ) public{\n        require(!storeUser[msg.sender].status, \"Should not be registered before!\");\n\n        storeUser[msg.sender].name = userName;\n        storeUser[msg.sender].email = userEmail;\n        storeUser[msg.sender].publicKey = publicKey;\n        storeUser[msg.sender].status = true;\n        registeredUsers.push(msg.sender);\n    }\n\n    function getAllUsers() public view returns(address[] memory users){\n        return registeredUsers;\n    }\n\n}\n",
  "sourcePath": "/home/shubham/ConsensoLabs/secure-docstore-contracts/contracts/MasterContract.sol",
  "compiler": {
    "name": "solc",
    "version": "0.5.16+commit.9c3226ce.Emscripten.clang"
  },
  "schemaVersion": "3.3.1",
  "updatedAt": "2020-11-03T14:34:13.785Z",
  "networkType": "ethereum",
  "devdoc": {
    "methods": {
      "registerUser(string,string,string)": {
        "details": "Register User",
        "params": {
          "userEmail": ": User mail id",
          "userName": ": User Name"
        }
      }
    }
  },
  "userdoc": {
    "methods": {}
  }
}