{
  "contractName": "MasterContract",
  "abi": [
    {
      "constant": true,
      "inputs": [
        {
          "internalType": "address",
          "name": "",
          "type": "address"
        }
      ],
      "name": "storeUser",
      "outputs": [
        {
          "internalType": "string",
          "name": "name",
          "type": "string"
        },
        {
          "internalType": "string",
          "name": "email",
          "type": "string"
        },
        {
          "internalType": "bool",
          "name": "status",
          "type": "bool"
        },
        {
          "internalType": "string",
          "name": "publicKey",
          "type": "string"
        }
      ],
      "payable": false,
      "stateMutability": "view",
      "type": "function"
    },
    {
      "constant": false,
      "inputs": [
        {
          "internalType": "string",
          "name": "userName",
          "type": "string"
        },
        {
          "internalType": "string",
          "name": "userEmail",
          "type": "string"
        },
        {
          "internalType": "string",
          "name": "publicKey",
          "type": "string"
        }
      ],
      "name": "registerUser",
      "outputs": [],
      "payable": false,
      "stateMutability": "nonpayable",
      "type": "function"
    },
    {
      "constant": false,
      "inputs": [
        {
          "internalType": "string",
          "name": "key",
          "type": "string"
        }
      ],
      "name": "updatePublicKey",
      "outputs": [],
      "payable": false,
      "stateMutability": "nonpayable",
      "type": "function"
    },
    {
      "constant": false,
      "inputs": [
        {
          "internalType": "uint256",
          "name": "caseId",
          "type": "uint256"
        },
        {
          "internalType": "string",
          "name": "documentHash",
          "type": "string"
        },
        {
          "internalType": "string",
          "name": "documentLocation",
          "type": "string"
        },
        {
          "internalType": "string[]",
          "name": "key",
          "type": "string[]"
        },
        {
          "internalType": "address[]",
          "name": "users",
          "type": "address[]"
        }
      ],
      "name": "uploadDocument",
      "outputs": [],
      "payable": false,
      "stateMutability": "nonpayable",
      "type": "function"
    },
    {
      "constant": true,
      "inputs": [
        {
          "internalType": "uint256",
          "name": "index",
          "type": "uint256"
        }
      ],
      "name": "getDocument",
      "outputs": [
        {
          "components": [
            {
              "internalType": "uint256",
              "name": "caseId",
              "type": "uint256"
            },
            {
              "internalType": "string",
              "name": "documentLocation",
              "type": "string"
            },
            {
              "internalType": "string",
              "name": "documentHash",
              "type": "string"
            },
            {
              "internalType": "string[]",
              "name": "key",
              "type": "string[]"
            },
            {
              "internalType": "address[]",
              "name": "users",
              "type": "address[]"
            }
          ],
          "internalType": "struct MasterContract.Document",
          "name": "document",
          "type": "tuple"
        }
      ],
      "payable": false,
      "stateMutability": "view",
      "type": "function"
    },
    {
      "constant": true,
      "inputs": [],
      "name": "getAllDocIndex",
      "outputs": [
        {
          "internalType": "uint256[]",
          "name": "docIndex",
          "type": "uint256[]"
        }
      ],
      "payable": false,
      "stateMutability": "view",
      "type": "function"
    },
    {
      "constant": true,
      "inputs": [],
      "name": "getTotalDocuments",
      "outputs": [
        {
          "internalType": "uint256",
          "name": "",
          "type": "uint256"
        }
      ],
      "payable": false,
      "stateMutability": "view",
      "type": "function"
    },
    {
      "constant": true,
      "inputs": [
        {
          "internalType": "address",
          "name": "userAddress",
          "type": "address"
        }
      ],
      "name": "getPublicKey",
      "outputs": [
        {
          "internalType": "string",
          "name": "publicKey",
          "type": "string"
        }
      ],
      "payable": false,
      "stateMutability": "view",
      "type": "function"
    },
    {
      "constant": true,
      "inputs": [
        {
          "internalType": "uint256",
          "name": "docIndex",
          "type": "uint256"
        }
      ],
      "name": "getCipherKey",
      "outputs": [
        {
          "internalType": "string",
          "name": "cipherKey",
          "type": "string"
        }
      ],
      "payable": false,
      "stateMutability": "view",
      "type": "function"
    },
    {
      "constant": true,
      "inputs": [],
      "name": "getAllUsers",
      "outputs": [
        {
          "internalType": "address[]",
          "name": "users",
          "type": "address[]"
        }
      ],
      "payable": false,
      "stateMutability": "view",
      "type": "function"
    }
  ],
  "bytecode": "0x608060405234801561001057600080fd5b50611f4b806100206000396000f3fe608060405234801561001057600080fd5b506004361061009e5760003560e01c8063857cdbb811610066578063857cdbb814610159578063d637dcfa14610189578063d7cab338146101a5578063e2842d79146101d8578063e90e7ad4146101f65761009e565b806307a9908b146100a35780631dc6fa5e146100c157806331368277146100dd5780633f9b250a146100f957806355c5910514610129575b600080fd5b6100ab610214565b6040516100b89190611b53565b60405180910390f35b6100db60048036036100d691908101906115d4565b6102ab565b005b6100f760048036036100f291908101906116d5565b610304565b005b610113600480360361010e91908101906116ac565b61048c565b6040516101209190611c11565b60405180910390f35b610143600480360361013e91908101906116ac565b610786565b6040516101509190611b75565b60405180910390f35b610173600480360361016e91908101906115ab565b610b14565b6040516101809190611b75565b60405180910390f35b6101a3600480360361019e9190810190611615565b610bf7565b005b6101bf60048036036101ba91908101906115ab565b610e4d565b6040516101cf9493929190611b97565b60405180910390f35b6101e0611052565b6040516101ed9190611b31565b60405180910390f35b6101fe6110e0565b60405161020b9190611c33565b60405180910390f35b60606000803373ffffffffffffffffffffffffffffffffffffffff1673ffffffffffffffffffffffffffffffffffffffff1681526020019081526020016000206004018054806020026020016040519081016040528092919081815260200182805480156102a157602002820191906000526020600020905b81548152602001906001019080831161028d575b5050505050905090565b806000803373ffffffffffffffffffffffffffffffffffffffff1673ffffffffffffffffffffffffffffffffffffffff16815260200190815260200160002060030190805190602001906103009291906110ed565b5050565b61030c61116d565b6040518060a0016040528087815260200185815260200186815260200184815260200183815250905060008090505b82518110156103d45760008084838151811061035357fe5b602002602001015173ffffffffffffffffffffffffffffffffffffffff1673ffffffffffffffffffffffffffffffffffffffff1681526020019081526020016000206004016002805490509080600181540180825580915050906001820390600052602060002001600090919290919091505550808060010191505061033b565b506002819080600181540180825580915050906001820390600052602060002090600502016000909192909190915060008201518160000155602082015181600101908051906020019061042992919061119c565b50604082015181600201908051906020019061044692919061119c565b50606082015181600301908051906020019061046392919061121c565b50608082015181600401908051906020019061048092919061127c565b50505050505050505050565b61049461116d565b600282815481106104a157fe5b90600052602060002090600502016040518060a001604052908160008201548152602001600182018054600181600116156101000203166002900480601f01602080910402602001604051908101604052809291908181526020018280546001816001161561010002031660029004801561055d5780601f106105325761010080835404028352916020019161055d565b820191906000526020600020905b81548152906001019060200180831161054057829003601f168201915b50505050508152602001600282018054600181600116156101000203166002900480601f0160208091040260200160405190810160405280929190818152602001828054600181600116156101000203166002900480156105ff5780601f106105d4576101008083540402835291602001916105ff565b820191906000526020600020905b8154815290600101906020018083116105e257829003601f168201915b5050505050815260200160038201805480602002602001604051908101604052809291908181526020016000905b828210156106e9578382906000526020600020018054600181600116156101000203166002900480601f0160208091040260200160405190810160405280929190818152602001828054600181600116156101000203166002900480156106d55780601f106106aa576101008083540402835291602001916106d5565b820191906000526020600020905b8154815290600101906020018083116106b857829003601f168201915b50505050508152602001906001019061062d565b5050505081526020016004820180548060200260200160405190810160405280929190818152602001828054801561077657602002820191906000526020600020905b8160009054906101000a900473ffffffffffffffffffffffffffffffffffffffff1673ffffffffffffffffffffffffffffffffffffffff168152602001906001019080831161072c575b5050505050815250509050919050565b606061079061116d565b6002838154811061079d57fe5b90600052602060002090600502016040518060a001604052908160008201548152602001600182018054600181600116156101000203166002900480601f0160208091040260200160405190810160405280929190818152602001828054600181600116156101000203166002900480156108595780601f1061082e57610100808354040283529160200191610859565b820191906000526020600020905b81548152906001019060200180831161083c57829003601f168201915b50505050508152602001600282018054600181600116156101000203166002900480601f0160208091040260200160405190810160405280929190818152602001828054600181600116156101000203166002900480156108fb5780601f106108d0576101008083540402835291602001916108fb565b820191906000526020600020905b8154815290600101906020018083116108de57829003601f168201915b5050505050815260200160038201805480602002602001604051908101604052809291908181526020016000905b828210156109e5578382906000526020600020018054600181600116156101000203166002900480601f0160208091040260200160405190810160405280929190818152602001828054600181600116156101000203166002900480156109d15780601f106109a6576101008083540402835291602001916109d1565b820191906000526020600020905b8154815290600101906020018083116109b457829003601f168201915b505050505081526020019060010190610929565b50505050815260200160048201805480602002602001604051908101604052809291908181526020018280548015610a7257602002820191906000526020600020905b8160009054906101000a900473ffffffffffffffffffffffffffffffffffffffff1673ffffffffffffffffffffffffffffffffffffffff1681526020019060010190808311610a28575b5050505050815250509050600080600090505b826080015151811015610af2573373ffffffffffffffffffffffffffffffffffffffff1683608001518281518110610ab957fe5b602002602001015173ffffffffffffffffffffffffffffffffffffffff161415610ae557809150610af2565b8080600101915050610a85565b5081606001518181518110610b0357fe5b602002602001015192505050919050565b60606000808373ffffffffffffffffffffffffffffffffffffffff1673ffffffffffffffffffffffffffffffffffffffff1681526020019081526020016000206003018054600181600116156101000203166002900480601f016020809104026020016040519081016040528092919081815260200182805460018160011615610100020316600290048015610beb5780601f10610bc057610100808354040283529160200191610beb565b820191906000526020600020905b815481529060010190602001808311610bce57829003601f168201915b50505050509050919050565b6000803373ffffffffffffffffffffffffffffffffffffffff1673ffffffffffffffffffffffffffffffffffffffff16815260200190815260200160002060020160009054906101000a900460ff1615610c86576040517f08c379a0000000000000000000000000000000000000000000000000000000008152600401610c7d90611bf1565b60405180910390fd5b826000803373ffffffffffffffffffffffffffffffffffffffff1673ffffffffffffffffffffffffffffffffffffffff1681526020019081526020016000206000019080519060200190610cdb9291906110ed565b50816000803373ffffffffffffffffffffffffffffffffffffffff1673ffffffffffffffffffffffffffffffffffffffff1681526020019081526020016000206001019080519060200190610d319291906110ed565b50806000803373ffffffffffffffffffffffffffffffffffffffff1673ffffffffffffffffffffffffffffffffffffffff1681526020019081526020016000206003019080519060200190610d879291906110ed565b5060016000803373ffffffffffffffffffffffffffffffffffffffff1673ffffffffffffffffffffffffffffffffffffffff16815260200190815260200160002060020160006101000a81548160ff02191690831515021790555060013390806001815401808255809150509060018203906000526020600020016000909192909190916101000a81548173ffffffffffffffffffffffffffffffffffffffff021916908373ffffffffffffffffffffffffffffffffffffffff16021790555050505050565b6000602052806000526040600020600091509050806000018054600181600116156101000203166002900480601f016020809104026020016040519081016040528092919081815260200182805460018160011615610100020316600290048015610ef95780601f10610ece57610100808354040283529160200191610ef9565b820191906000526020600020905b815481529060010190602001808311610edc57829003601f168201915b505050505090806001018054600181600116156101000203166002900480601f016020809104026020016040519081016040528092919081815260200182805460018160011615610100020316600290048015610f975780601f10610f6c57610100808354040283529160200191610f97565b820191906000526020600020905b815481529060010190602001808311610f7a57829003601f168201915b5050505050908060020160009054906101000a900460ff1690806003018054600181600116156101000203166002900480601f0160208091040260200160405190810160405280929190818152602001828054600181600116156101000203166002900480156110485780601f1061101d57610100808354040283529160200191611048565b820191906000526020600020905b81548152906001019060200180831161102b57829003601f168201915b5050505050905084565b606060018054806020026020016040519081016040528092919081815260200182805480156110d657602002820191906000526020600020905b8160009054906101000a900473ffffffffffffffffffffffffffffffffffffffff1673ffffffffffffffffffffffffffffffffffffffff168152602001906001019080831161108c575b5050505050905090565b6000600280549050905090565b828054600181600116156101000203166002900490600052602060002090601f016020900481019282601f1061112e57805160ff191683800117855561115c565b8280016001018555821561115c579182015b8281111561115b578251825591602001919060010190611140565b5b5090506111699190611306565b5090565b6040518060a0016040528060008152602001606081526020016060815260200160608152602001606081525090565b828054600181600116156101000203166002900490600052602060002090601f016020900481019282601f106111dd57805160ff191683800117855561120b565b8280016001018555821561120b579182015b8281111561120a5782518255916020019190600101906111ef565b5b5090506112189190611306565b5090565b82805482825590600052602060002090810192821561126b579160200282015b8281111561126a57825182908051906020019061125a92919061119c565b509160200191906001019061123c565b5b509050611278919061132b565b5090565b8280548282559060005260206000209081019282156112f5579160200282015b828111156112f45782518260006101000a81548173ffffffffffffffffffffffffffffffffffffffff021916908373ffffffffffffffffffffffffffffffffffffffff1602179055509160200191906001019061129c565b5b5090506113029190611357565b5090565b61132891905b8082111561132457600081600090555060010161130c565b5090565b90565b61135491905b808211156113505760008181611347919061139a565b50600101611331565b5090565b90565b61139791905b8082111561139357600081816101000a81549073ffffffffffffffffffffffffffffffffffffffff02191690555060010161135d565b5090565b90565b50805460018160011615610100020316600290046000825580601f106113c057506113df565b601f0160209004906000526020600020908101906113de9190611306565b5b50565b6000813590506113f181611eda565b92915050565b600082601f83011261140857600080fd5b813561141b61141682611c7b565b611c4e565b9150818183526020840193506020810190508385602084028201111561144057600080fd5b60005b83811015611470578161145688826113e2565b845260208401935060208301925050600181019050611443565b5050505092915050565b600082601f83011261148b57600080fd5b813561149e61149982611ca3565b611c4e565b9150818183526020840193506020810190508360005b838110156114e457813586016114ca88826114ee565b8452602084019350602083019250506001810190506114b4565b5050505092915050565b600082601f8301126114ff57600080fd5b813561151261150d82611ccb565b611c4e565b9150808252602083016020830185838301111561152e57600080fd5b611539838284611e87565b50505092915050565b600082601f83011261155357600080fd5b813561156661156182611cf7565b611c4e565b9150808252602083016020830185838301111561158257600080fd5b61158d838284611e87565b50505092915050565b6000813590506115a581611ef1565b92915050565b6000602082840312156115bd57600080fd5b60006115cb848285016113e2565b91505092915050565b6000602082840312156115e657600080fd5b600082013567ffffffffffffffff81111561160057600080fd5b61160c84828501611542565b91505092915050565b60008060006060848603121561162a57600080fd5b600084013567ffffffffffffffff81111561164457600080fd5b61165086828701611542565b935050602084013567ffffffffffffffff81111561166d57600080fd5b61167986828701611542565b925050604084013567ffffffffffffffff81111561169657600080fd5b6116a286828701611542565b9150509250925092565b6000602082840312156116be57600080fd5b60006116cc84828501611596565b91505092915050565b600080600080600060a086880312156116ed57600080fd5b60006116fb88828901611596565b955050602086013567ffffffffffffffff81111561171857600080fd5b61172488828901611542565b945050604086013567ffffffffffffffff81111561174157600080fd5b61174d88828901611542565b935050606086013567ffffffffffffffff81111561176a57600080fd5b6117768882890161147a565b925050608086013567ffffffffffffffff81111561179357600080fd5b61179f888289016113f7565b9150509295509295909350565b60006117b883836117f0565b60208301905092915050565b60006117d083836119d6565b905092915050565b60006117e48383611b13565b60208301905092915050565b6117f981611e3f565b82525050565b600061180a82611d6e565b6118148185611dea565b935061181f83611d33565b8060005b8381101561185057815161183788826117ac565b975061184283611db2565b925050600181019050611823565b5085935050505092915050565b600061186882611d63565b6118728185611dd9565b935061187d83611d23565b8060005b838110156118ae57815161189588826117ac565b97506118a083611da5565b925050600181019050611881565b5085935050505092915050565b60006118c682611d79565b6118d08185611dfb565b9350836020820285016118e285611d43565b8060005b8581101561191e57848403895281516118ff85826117c4565b945061190a83611dbf565b925060208a019950506001810190506118e6565b50829750879550505050505092915050565b600061193b82611d84565b6119458185611e0c565b935061195083611d53565b8060005b8381101561198157815161196888826117d8565b975061197383611dcc565b925050600181019050611954565b5085935050505092915050565b61199781611e51565b82525050565b60006119a882611d9a565b6119b28185611e2e565b93506119c2818560208601611e96565b6119cb81611ec9565b840191505092915050565b60006119e182611d8f565b6119eb8185611e1d565b93506119fb818560208601611e96565b611a0481611ec9565b840191505092915050565b6000611a1a82611d8f565b611a248185611e2e565b9350611a34818560208601611e96565b611a3d81611ec9565b840191505092915050565b6000611a55602083611e2e565b91507f53686f756c64206e6f742062652072656769737465726564206265666f7265216000830152602082019050919050565b600060a083016000830151611aa06000860182611b13565b5060208301518482036020860152611ab882826119d6565b91505060408301518482036040860152611ad282826119d6565b91505060608301518482036060860152611aec82826118bb565b91505060808301518482036080860152611b06828261185d565b9150508091505092915050565b611b1c81611e7d565b82525050565b611b2b81611e7d565b82525050565b60006020820190508181036000830152611b4b81846117ff565b905092915050565b60006020820190508181036000830152611b6d8184611930565b905092915050565b60006020820190508181036000830152611b8f818461199d565b905092915050565b60006080820190508181036000830152611bb18187611a0f565b90508181036020830152611bc58186611a0f565b9050611bd4604083018561198e565b8181036060830152611be68184611a0f565b905095945050505050565b60006020820190508181036000830152611c0a81611a48565b9050919050565b60006020820190508181036000830152611c2b8184611a88565b905092915050565b6000602082019050611c486000830184611b22565b92915050565b6000604051905081810181811067ffffffffffffffff82111715611c7157600080fd5b8060405250919050565b600067ffffffffffffffff821115611c9257600080fd5b602082029050602081019050919050565b600067ffffffffffffffff821115611cba57600080fd5b602082029050602081019050919050565b600067ffffffffffffffff821115611ce257600080fd5b601f19601f8301169050602081019050919050565b600067ffffffffffffffff821115611d0e57600080fd5b601f19601f8301169050602081019050919050565b6000819050602082019050919050565b6000819050602082019050919050565b6000819050602082019050919050565b6000819050602082019050919050565b600081519050919050565b600081519050919050565b600081519050919050565b600081519050919050565b600081519050919050565b600081519050919050565b6000602082019050919050565b6000602082019050919050565b6000602082019050919050565b6000602082019050919050565b600082825260208201905092915050565b600082825260208201905092915050565b600082825260208201905092915050565b600082825260208201905092915050565b600082825260208201905092915050565b600082825260208201905092915050565b6000611e4a82611e5d565b9050919050565b60008115159050919050565b600073ffffffffffffffffffffffffffffffffffffffff82169050919050565b6000819050919050565b82818337600083830152505050565b60005b83811015611eb4578082015181840152602081019050611e99565b83811115611ec3576000848401525b50505050565b6000601f19601f8301169050919050565b611ee381611e3f565b8114611eee57600080fd5b50565b611efa81611e7d565b8114611f0557600080fd5b5056fea365627a7a723158204e13b53d93fb13265f49ab0464e5f2d8b797a861e24db318a5ef3a1609b647556c6578706572696d656e74616cf564736f6c63430005100040",
  "source": "pragma solidity >=0.5.0 <0.7.0;\npragma experimental ABIEncoderV2;\n\ncontract MasterContract {\n\n    struct UserSchema {\n        string name;\n        string email;\n        bool status;\n        string publicKey;\n        uint256[] docIndex;\n    }\n\n    struct Document{\n        uint256 caseId;\n        string documentLocation;\n        string documentHash;\n        string[] key;\n        address[] users;\n    }\n\n    // Map to store all the registered users\n    mapping(address=>UserSchema) public storeUser;\n\n    // array to store registered users address\n    address[] registeredUsers;\n\n    // array to store all document\n    Document[] storeDocument;\n\n    /**\n     * @dev Register User\n     * @param userName: User Name\n     * @param userEmail: User mail id\n     */\n    function registerUser(\n        string memory userName,\n        string memory userEmail,\n        string memory publicKey\n    ) public{\n        require(!storeUser[msg.sender].status, \"Should not be registered before!\");\n\n        storeUser[msg.sender].name = userName;\n        storeUser[msg.sender].email = userEmail;\n        storeUser[msg.sender].publicKey = publicKey;\n        storeUser[msg.sender].status = true;\n        registeredUsers.push(msg.sender);\n    }\n\n    /**\n     * @dev Update public key\n     * @param key: caller's public key\n     */\n    function updatePublicKey(string memory key) public{\n        storeUser[msg.sender].publicKey = key;\n    }\n\n    /**\n     * @dev Upload document\n     * @param caseId: Case Id\n     * @param documentHash: doc Hash\n     * @param documentLocation: doc location\n     * @param key: Array to hold AesEnc Key for party's involved in document exchange\n     * @param users: Array to hold party's address\n     * @notice Consider there is document exchange between PartyA and PartyB then key array will\n     * contain key for both party and the user array will contain address of both party.\n     *\n     * For each party present in the user array, the respected party's docIndex will be appended with\n     * the index where current document is stored\n     */\n    function uploadDocument(\n        uint256 caseId,\n        string memory documentHash,\n        string memory documentLocation,\n        string[] memory key,\n        address[] memory users\n    ) public {\n        Document memory newDoc = Document({\n            caseId: caseId,\n            documentLocation: documentLocation,\n            documentHash: documentHash,\n            key: key,\n            users: users\n        });\n\n        for(uint256 i=0;i<users.length;i++){\n            storeUser[users[i]].docIndex.push(storeDocument.length);\n        }\n\n        storeDocument.push(newDoc);\n    }\n\n    /**\n     * @param index: document index\n     * @return Document object\n     */\n    function getDocument(uint256 index) public view returns(Document memory document){\n        return storeDocument[index];\n    }\n\n    /**\n     * @return all document index\n     */\n    function getAllDocIndex() public view returns(uint256[] memory docIndex){\n        return storeUser[msg.sender].docIndex;\n    }\n\n    /**\n     * @return total document\n     */\n    function getTotalDocuments() public view returns(uint256){\n        return storeDocument.length;\n    }\n\n    /**\n     * @param userAddress: User address for getting the public key\n     * @return public key of registered user\n     */\n    function getPublicKey(address userAddress) public view returns(string memory publicKey){\n        return storeUser[userAddress].publicKey;\n    }\n\n    /**\n     * @param docIndex: Document Index\n     * @return AesEncKey for a particular document\n     */\n    function getCipherKey(uint256 docIndex)public view returns(string memory cipherKey){\n        Document memory document = storeDocument[docIndex];\n        uint256 index;\n        for (uint256 i = 0;i<document.users.length;i++){\n            if(document.users[i]==msg.sender){\n                index =i;\n                break;\n            }\n        }\n        return document.key[index];\n    }\n\n    /**\n     * @return all registered Users address\n     */\n    function getAllUsers() public view returns(address[] memory users){\n        return registeredUsers;\n    }\n\n}\n",
  "sourcePath": "/home/shubham/ConsensoLabs/secure-docstore-contracts/contracts/MasterContract.sol",
  "compiler": {
    "name": "solc",
    "version": "0.5.16+commit.9c3226ce.Emscripten.clang"
  },
  "schemaVersion": "3.0.23",
  "updatedAt": "2020-09-13T14:09:23.550Z",
  "networkType": "ethereum",
  "devdoc": {
    "methods": {
      "getAllDocIndex()": {
        "return": "all document index"
      },
      "getAllUsers()": {
        "return": "all registered Users address"
      },
      "getCipherKey(uint256)": {
        "params": {
          "docIndex": ": Document Index"
        },
        "return": "AesEncKey for a particular document"
      },
      "getDocument(uint256)": {
        "params": {
          "index": ": document index"
        },
        "return": "Document object"
      },
      "getPublicKey(address)": {
        "params": {
          "userAddress": ": User address for getting the public key"
        },
        "return": "public key of registered user"
      },
      "getTotalDocuments()": {
        "return": "total document"
      },
      "registerUser(string,string,string)": {
        "details": "Register User",
        "params": {
          "userEmail": ": User mail id",
          "userName": ": User Name"
        }
      },
      "updatePublicKey(string)": {
        "details": "Update public key",
        "params": {
          "key": ": caller's public key"
        }
      },
      "uploadDocument(uint256,string,string,string[],address[])": {
        "details": "Upload document",
        "params": {
          "caseId": ": Case Id",
          "documentHash": ": doc Hash",
          "documentLocation": ": doc location",
          "key": ": Array to hold AesEnc Key for party's involved in document exchange",
          "users": ": Array to hold party's address"
        }
      }
    }
  },
  "userdoc": {
    "methods": {
      "uploadDocument(uint256,string,string,string[],address[])": {
        "notice": "Consider there is document exchange between PartyA and PartyB then key array will contain key for both party and the user array will contain address of both party.     * For each party present in the user array, the respected party's docIndex will be appended with the index where current document is stored"
      }
    }
  }
}