{
  "contractName": "MasterContract",
  "abi": [
    {
      "constant": true,
      "inputs": [
        {
          "internalType": "address",
          "name": "",
          "type": "address"
        }
      ],
      "name": "storeUser",
      "outputs": [
        {
          "internalType": "string",
          "name": "name",
          "type": "string"
        },
        {
          "internalType": "string",
          "name": "email",
          "type": "string"
        },
        {
          "internalType": "bool",
          "name": "status",
          "type": "bool"
        },
        {
          "internalType": "string",
          "name": "publicKey",
          "type": "string"
        }
      ],
      "payable": false,
      "stateMutability": "view",
      "type": "function"
    },
    {
      "constant": false,
      "inputs": [
        {
          "internalType": "string",
          "name": "userName",
          "type": "string"
        },
        {
          "internalType": "string",
          "name": "userEmail",
          "type": "string"
        }
      ],
      "name": "registerUser",
      "outputs": [],
      "payable": false,
      "stateMutability": "nonpayable",
      "type": "function"
    },
    {
      "constant": false,
      "inputs": [
        {
          "internalType": "string",
          "name": "key",
          "type": "string"
        }
      ],
      "name": "updatePublicKey",
      "outputs": [],
      "payable": false,
      "stateMutability": "nonpayable",
      "type": "function"
    },
    {
      "constant": false,
      "inputs": [
        {
          "internalType": "uint256",
          "name": "caseId",
          "type": "uint256"
        },
        {
          "internalType": "string",
          "name": "documentHash",
          "type": "string"
        },
        {
          "internalType": "string",
          "name": "documentLocation",
          "type": "string"
        },
        {
          "internalType": "string[]",
          "name": "key",
          "type": "string[]"
        },
        {
          "internalType": "address[]",
          "name": "users",
          "type": "address[]"
        }
      ],
      "name": "uploadDocument",
      "outputs": [],
      "payable": false,
      "stateMutability": "nonpayable",
      "type": "function"
    },
    {
      "constant": true,
      "inputs": [
        {
          "internalType": "uint256",
          "name": "index",
          "type": "uint256"
        }
      ],
      "name": "getDocument",
      "outputs": [
        {
          "components": [
            {
              "internalType": "uint256",
              "name": "caseId",
              "type": "uint256"
            },
            {
              "internalType": "string",
              "name": "documentLocation",
              "type": "string"
            },
            {
              "internalType": "string",
              "name": "documentHash",
              "type": "string"
            },
            {
              "internalType": "string[]",
              "name": "key",
              "type": "string[]"
            },
            {
              "internalType": "address[]",
              "name": "users",
              "type": "address[]"
            }
          ],
          "internalType": "struct MasterContract.Document",
          "name": "document",
          "type": "tuple"
        }
      ],
      "payable": false,
      "stateMutability": "view",
      "type": "function"
    },
    {
      "constant": true,
      "inputs": [],
      "name": "getAllDocIndex",
      "outputs": [
        {
          "internalType": "uint256[]",
          "name": "docIndex",
          "type": "uint256[]"
        }
      ],
      "payable": false,
      "stateMutability": "view",
      "type": "function"
    },
    {
      "constant": true,
      "inputs": [],
      "name": "getTotalDocuments",
      "outputs": [
        {
          "internalType": "uint256",
          "name": "",
          "type": "uint256"
        }
      ],
      "payable": false,
      "stateMutability": "view",
      "type": "function"
    },
    {
      "constant": true,
      "inputs": [
        {
          "internalType": "address",
          "name": "userAddress",
          "type": "address"
        }
      ],
      "name": "getPublicKey",
      "outputs": [
        {
          "internalType": "string",
          "name": "publicKey",
          "type": "string"
        }
      ],
      "payable": false,
      "stateMutability": "view",
      "type": "function"
    },
    {
      "constant": true,
      "inputs": [
        {
          "internalType": "uint256",
          "name": "docIndex",
          "type": "uint256"
        }
      ],
      "name": "getCipherKey",
      "outputs": [
        {
          "internalType": "string",
          "name": "cipherKey",
          "type": "string"
        }
      ],
      "payable": false,
      "stateMutability": "view",
      "type": "function"
    },
    {
      "constant": true,
      "inputs": [],
      "name": "getAllUsers",
      "outputs": [
        {
          "internalType": "address[]",
          "name": "users",
          "type": "address[]"
        }
      ],
      "payable": false,
      "stateMutability": "view",
      "type": "function"
    }
  ],
  "bytecode": "0x608060405234801561001057600080fd5b50611ec9806100206000396000f3fe608060405234801561001057600080fd5b506004361061009e5760003560e01c806355c591051161006657806355c5910514610145578063857cdbb814610175578063d7cab338146101a5578063e2842d79146101d8578063e90e7ad4146101f65761009e565b806307a9908b146100a35780631d2e4afd146100c15780631dc6fa5e146100dd57806331368277146100f95780633f9b250a14610115575b600080fd5b6100ab610214565b6040516100b89190611ad1565b60405180910390f35b6100db60048036036100d691908101906115be565b6102ab565b005b6100f760048036036100f2919081019061157d565b6104aa565b005b610113600480360361010e9190810190611653565b610503565b005b61012f600480360361012a919081019061162a565b61068b565b60405161013c9190611b8f565b60405180910390f35b61015f600480360361015a919081019061162a565b610985565b60405161016c9190611af3565b60405180910390f35b61018f600480360361018a9190810190611554565b610d13565b60405161019c9190611af3565b60405180910390f35b6101bf60048036036101ba9190810190611554565b610df6565b6040516101cf9493929190611b15565b60405180910390f35b6101e0610ffb565b6040516101ed9190611aaf565b60405180910390f35b6101fe611089565b60405161020b9190611bb1565b60405180910390f35b60606000803373ffffffffffffffffffffffffffffffffffffffff1673ffffffffffffffffffffffffffffffffffffffff1681526020019081526020016000206004018054806020026020016040519081016040528092919081815260200182805480156102a157602002820191906000526020600020905b81548152602001906001019080831161028d575b5050505050905090565b6000803373ffffffffffffffffffffffffffffffffffffffff1673ffffffffffffffffffffffffffffffffffffffff16815260200190815260200160002060020160009054906101000a900460ff161561033a576040517f08c379a000000000000000000000000000000000000000000000000000000000815260040161033190611b6f565b60405180910390fd5b816000803373ffffffffffffffffffffffffffffffffffffffff1673ffffffffffffffffffffffffffffffffffffffff168152602001908152602001600020600001908051906020019061038f929190611096565b50806000803373ffffffffffffffffffffffffffffffffffffffff1673ffffffffffffffffffffffffffffffffffffffff16815260200190815260200160002060010190805190602001906103e5929190611096565b5060016000803373ffffffffffffffffffffffffffffffffffffffff1673ffffffffffffffffffffffffffffffffffffffff16815260200190815260200160002060020160006101000a81548160ff02191690831515021790555060013390806001815401808255809150509060018203906000526020600020016000909192909190916101000a81548173ffffffffffffffffffffffffffffffffffffffff021916908373ffffffffffffffffffffffffffffffffffffffff160217905550505050565b806000803373ffffffffffffffffffffffffffffffffffffffff1673ffffffffffffffffffffffffffffffffffffffff16815260200190815260200160002060030190805190602001906104ff929190611096565b5050565b61050b611116565b6040518060a0016040528087815260200185815260200186815260200184815260200183815250905060008090505b82518110156105d35760008084838151811061055257fe5b602002602001015173ffffffffffffffffffffffffffffffffffffffff1673ffffffffffffffffffffffffffffffffffffffff1681526020019081526020016000206004016002805490509080600181540180825580915050906001820390600052602060002001600090919290919091505550808060010191505061053a565b5060028190806001815401808255809150509060018203906000526020600020906005020160009091929091909150600082015181600001556020820151816001019080519060200190610628929190611145565b506040820151816002019080519060200190610645929190611145565b5060608201518160030190805190602001906106629291906111c5565b50608082015181600401908051906020019061067f929190611225565b50505050505050505050565b610693611116565b600282815481106106a057fe5b90600052602060002090600502016040518060a001604052908160008201548152602001600182018054600181600116156101000203166002900480601f01602080910402602001604051908101604052809291908181526020018280546001816001161561010002031660029004801561075c5780601f106107315761010080835404028352916020019161075c565b820191906000526020600020905b81548152906001019060200180831161073f57829003601f168201915b50505050508152602001600282018054600181600116156101000203166002900480601f0160208091040260200160405190810160405280929190818152602001828054600181600116156101000203166002900480156107fe5780601f106107d3576101008083540402835291602001916107fe565b820191906000526020600020905b8154815290600101906020018083116107e157829003601f168201915b5050505050815260200160038201805480602002602001604051908101604052809291908181526020016000905b828210156108e8578382906000526020600020018054600181600116156101000203166002900480601f0160208091040260200160405190810160405280929190818152602001828054600181600116156101000203166002900480156108d45780601f106108a9576101008083540402835291602001916108d4565b820191906000526020600020905b8154815290600101906020018083116108b757829003601f168201915b50505050508152602001906001019061082c565b5050505081526020016004820180548060200260200160405190810160405280929190818152602001828054801561097557602002820191906000526020600020905b8160009054906101000a900473ffffffffffffffffffffffffffffffffffffffff1673ffffffffffffffffffffffffffffffffffffffff168152602001906001019080831161092b575b5050505050815250509050919050565b606061098f611116565b6002838154811061099c57fe5b90600052602060002090600502016040518060a001604052908160008201548152602001600182018054600181600116156101000203166002900480601f016020809104026020016040519081016040528092919081815260200182805460018160011615610100020316600290048015610a585780601f10610a2d57610100808354040283529160200191610a58565b820191906000526020600020905b815481529060010190602001808311610a3b57829003601f168201915b50505050508152602001600282018054600181600116156101000203166002900480601f016020809104026020016040519081016040528092919081815260200182805460018160011615610100020316600290048015610afa5780601f10610acf57610100808354040283529160200191610afa565b820191906000526020600020905b815481529060010190602001808311610add57829003601f168201915b5050505050815260200160038201805480602002602001604051908101604052809291908181526020016000905b82821015610be4578382906000526020600020018054600181600116156101000203166002900480601f016020809104026020016040519081016040528092919081815260200182805460018160011615610100020316600290048015610bd05780601f10610ba557610100808354040283529160200191610bd0565b820191906000526020600020905b815481529060010190602001808311610bb357829003601f168201915b505050505081526020019060010190610b28565b50505050815260200160048201805480602002602001604051908101604052809291908181526020018280548015610c7157602002820191906000526020600020905b8160009054906101000a900473ffffffffffffffffffffffffffffffffffffffff1673ffffffffffffffffffffffffffffffffffffffff1681526020019060010190808311610c27575b5050505050815250509050600080600090505b826080015151811015610cf1573373ffffffffffffffffffffffffffffffffffffffff1683608001518281518110610cb857fe5b602002602001015173ffffffffffffffffffffffffffffffffffffffff161415610ce457809150610cf1565b8080600101915050610c84565b5081606001518181518110610d0257fe5b602002602001015192505050919050565b60606000808373ffffffffffffffffffffffffffffffffffffffff1673ffffffffffffffffffffffffffffffffffffffff1681526020019081526020016000206003018054600181600116156101000203166002900480601f016020809104026020016040519081016040528092919081815260200182805460018160011615610100020316600290048015610dea5780601f10610dbf57610100808354040283529160200191610dea565b820191906000526020600020905b815481529060010190602001808311610dcd57829003601f168201915b50505050509050919050565b6000602052806000526040600020600091509050806000018054600181600116156101000203166002900480601f016020809104026020016040519081016040528092919081815260200182805460018160011615610100020316600290048015610ea25780601f10610e7757610100808354040283529160200191610ea2565b820191906000526020600020905b815481529060010190602001808311610e8557829003601f168201915b505050505090806001018054600181600116156101000203166002900480601f016020809104026020016040519081016040528092919081815260200182805460018160011615610100020316600290048015610f405780601f10610f1557610100808354040283529160200191610f40565b820191906000526020600020905b815481529060010190602001808311610f2357829003601f168201915b5050505050908060020160009054906101000a900460ff1690806003018054600181600116156101000203166002900480601f016020809104026020016040519081016040528092919081815260200182805460018160011615610100020316600290048015610ff15780601f10610fc657610100808354040283529160200191610ff1565b820191906000526020600020905b815481529060010190602001808311610fd457829003601f168201915b5050505050905084565b6060600180548060200260200160405190810160405280929190818152602001828054801561107f57602002820191906000526020600020905b8160009054906101000a900473ffffffffffffffffffffffffffffffffffffffff1673ffffffffffffffffffffffffffffffffffffffff1681526020019060010190808311611035575b5050505050905090565b6000600280549050905090565b828054600181600116156101000203166002900490600052602060002090601f016020900481019282601f106110d757805160ff1916838001178555611105565b82800160010185558215611105579182015b828111156111045782518255916020019190600101906110e9565b5b50905061111291906112af565b5090565b6040518060a0016040528060008152602001606081526020016060815260200160608152602001606081525090565b828054600181600116156101000203166002900490600052602060002090601f016020900481019282601f1061118657805160ff19168380011785556111b4565b828001600101855582156111b4579182015b828111156111b3578251825591602001919060010190611198565b5b5090506111c191906112af565b5090565b828054828255906000526020600020908101928215611214579160200282015b82811115611213578251829080519060200190611203929190611145565b50916020019190600101906111e5565b5b50905061122191906112d4565b5090565b82805482825590600052602060002090810192821561129e579160200282015b8281111561129d5782518260006101000a81548173ffffffffffffffffffffffffffffffffffffffff021916908373ffffffffffffffffffffffffffffffffffffffff16021790555091602001919060010190611245565b5b5090506112ab9190611300565b5090565b6112d191905b808211156112cd5760008160009055506001016112b5565b5090565b90565b6112fd91905b808211156112f957600081816112f09190611343565b506001016112da565b5090565b90565b61134091905b8082111561133c57600081816101000a81549073ffffffffffffffffffffffffffffffffffffffff021916905550600101611306565b5090565b90565b50805460018160011615610100020316600290046000825580601f106113695750611388565b601f01602090049060005260206000209081019061138791906112af565b5b50565b60008135905061139a81611e58565b92915050565b600082601f8301126113b157600080fd5b81356113c46113bf82611bf9565b611bcc565b915081818352602084019350602081019050838560208402820111156113e957600080fd5b60005b8381101561141957816113ff888261138b565b8452602084019350602083019250506001810190506113ec565b5050505092915050565b600082601f83011261143457600080fd5b813561144761144282611c21565b611bcc565b9150818183526020840193506020810190508360005b8381101561148d57813586016114738882611497565b84526020840193506020830192505060018101905061145d565b5050505092915050565b600082601f8301126114a857600080fd5b81356114bb6114b682611c49565b611bcc565b915080825260208301602083018583830111156114d757600080fd5b6114e2838284611e05565b50505092915050565b600082601f8301126114fc57600080fd5b813561150f61150a82611c75565b611bcc565b9150808252602083016020830185838301111561152b57600080fd5b611536838284611e05565b50505092915050565b60008135905061154e81611e6f565b92915050565b60006020828403121561156657600080fd5b60006115748482850161138b565b91505092915050565b60006020828403121561158f57600080fd5b600082013567ffffffffffffffff8111156115a957600080fd5b6115b5848285016114eb565b91505092915050565b600080604083850312156115d157600080fd5b600083013567ffffffffffffffff8111156115eb57600080fd5b6115f7858286016114eb565b925050602083013567ffffffffffffffff81111561161457600080fd5b611620858286016114eb565b9150509250929050565b60006020828403121561163c57600080fd5b600061164a8482850161153f565b91505092915050565b600080600080600060a0868803121561166b57600080fd5b60006116798882890161153f565b955050602086013567ffffffffffffffff81111561169657600080fd5b6116a2888289016114eb565b945050604086013567ffffffffffffffff8111156116bf57600080fd5b6116cb888289016114eb565b935050606086013567ffffffffffffffff8111156116e857600080fd5b6116f488828901611423565b925050608086013567ffffffffffffffff81111561171157600080fd5b61171d888289016113a0565b9150509295509295909350565b6000611736838361176e565b60208301905092915050565b600061174e8383611954565b905092915050565b60006117628383611a91565b60208301905092915050565b61177781611dbd565b82525050565b600061178882611cec565b6117928185611d68565b935061179d83611cb1565b8060005b838110156117ce5781516117b5888261172a565b97506117c083611d30565b9250506001810190506117a1565b5085935050505092915050565b60006117e682611ce1565b6117f08185611d57565b93506117fb83611ca1565b8060005b8381101561182c578151611813888261172a565b975061181e83611d23565b9250506001810190506117ff565b5085935050505092915050565b600061184482611cf7565b61184e8185611d79565b93508360208202850161186085611cc1565b8060005b8581101561189c578484038952815161187d8582611742565b945061188883611d3d565b925060208a01995050600181019050611864565b50829750879550505050505092915050565b60006118b982611d02565b6118c38185611d8a565b93506118ce83611cd1565b8060005b838110156118ff5781516118e68882611756565b97506118f183611d4a565b9250506001810190506118d2565b5085935050505092915050565b61191581611dcf565b82525050565b600061192682611d18565b6119308185611dac565b9350611940818560208601611e14565b61194981611e47565b840191505092915050565b600061195f82611d0d565b6119698185611d9b565b9350611979818560208601611e14565b61198281611e47565b840191505092915050565b600061199882611d0d565b6119a28185611dac565b93506119b2818560208601611e14565b6119bb81611e47565b840191505092915050565b60006119d3602083611dac565b91507f53686f756c64206e6f742062652072656769737465726564206265666f7265216000830152602082019050919050565b600060a083016000830151611a1e6000860182611a91565b5060208301518482036020860152611a368282611954565b91505060408301518482036040860152611a508282611954565b91505060608301518482036060860152611a6a8282611839565b91505060808301518482036080860152611a8482826117db565b9150508091505092915050565b611a9a81611dfb565b82525050565b611aa981611dfb565b82525050565b60006020820190508181036000830152611ac9818461177d565b905092915050565b60006020820190508181036000830152611aeb81846118ae565b905092915050565b60006020820190508181036000830152611b0d818461191b565b905092915050565b60006080820190508181036000830152611b2f818761198d565b90508181036020830152611b43818661198d565b9050611b52604083018561190c565b8181036060830152611b64818461198d565b905095945050505050565b60006020820190508181036000830152611b88816119c6565b9050919050565b60006020820190508181036000830152611ba98184611a06565b905092915050565b6000602082019050611bc66000830184611aa0565b92915050565b6000604051905081810181811067ffffffffffffffff82111715611bef57600080fd5b8060405250919050565b600067ffffffffffffffff821115611c1057600080fd5b602082029050602081019050919050565b600067ffffffffffffffff821115611c3857600080fd5b602082029050602081019050919050565b600067ffffffffffffffff821115611c6057600080fd5b601f19601f8301169050602081019050919050565b600067ffffffffffffffff821115611c8c57600080fd5b601f19601f8301169050602081019050919050565b6000819050602082019050919050565b6000819050602082019050919050565b6000819050602082019050919050565b6000819050602082019050919050565b600081519050919050565b600081519050919050565b600081519050919050565b600081519050919050565b600081519050919050565b600081519050919050565b6000602082019050919050565b6000602082019050919050565b6000602082019050919050565b6000602082019050919050565b600082825260208201905092915050565b600082825260208201905092915050565b600082825260208201905092915050565b600082825260208201905092915050565b600082825260208201905092915050565b600082825260208201905092915050565b6000611dc882611ddb565b9050919050565b60008115159050919050565b600073ffffffffffffffffffffffffffffffffffffffff82169050919050565b6000819050919050565b82818337600083830152505050565b60005b83811015611e32578082015181840152602081019050611e17565b83811115611e41576000848401525b50505050565b6000601f19601f8301169050919050565b611e6181611dbd565b8114611e6c57600080fd5b50565b611e7881611dfb565b8114611e8357600080fd5b5056fea365627a7a723158206f66d160ff8029c716a3b03d9887181e37c615f049665cb689989fef088d114f6c6578706572696d656e74616cf564736f6c63430005100040",
  "source": "pragma solidity >=0.5.0 <0.7.0;\npragma experimental ABIEncoderV2;\n\ncontract MasterContract {\n\n    struct UserSchema {\n        string name;\n        string email;\n        bool status;\n        string publicKey;\n        uint256[] docIndex;\n    }\n\n    struct Document{\n        uint256 caseId;\n        string documentLocation;\n        string documentHash;\n        string[] key;\n        address[] users;\n    }\n\n    // Map to store all the registered users\n    mapping(address=>UserSchema) public storeUser;\n\n    // array to store registered users address\n    address[] registeredUsers;\n\n    // array to store all document\n    Document[] storeDocument;\n\n    /**\n     * @dev Register User\n     * @param userName: User Name\n     * @param userEmail: User mail id\n     */\n    function registerUser(\n        string memory userName,\n        string memory userEmail\n    ) public{\n        require(!storeUser[msg.sender].status, \"Should not be registered before!\");\n\n        storeUser[msg.sender].name = userName;\n        storeUser[msg.sender].email = userEmail;\n        storeUser[msg.sender].status = true;\n        registeredUsers.push(msg.sender);\n    }\n\n    /**\n     * @dev Update public key\n     * @param key: caller's public key\n     */\n    function updatePublicKey(string memory key) public{\n        storeUser[msg.sender].publicKey = key;\n    }\n\n    /**\n     * @dev Upload document\n     * @param caseId: Case Id\n     * @param documentHash: doc Hash\n     * @param documentLocation: doc location\n     * @param key: Array to hold AesEnc Key for party's involved in document exchange\n     * @param users: Array to hold party's address\n     * @notice Consider there is document exchange between PartyA and PartyB then key array will\n     * contain key for both party and the user array will contain address of both party.\n     *\n     * For each party present in the user array, the respected party's docIndex will be appended with\n     * the index where current document is stored\n     */\n    function uploadDocument(\n        uint256 caseId,\n        string memory documentHash,\n        string memory documentLocation,\n        string[] memory key,\n        address[] memory users\n    ) public {\n        Document memory newDoc = Document({\n            caseId: caseId,\n            documentLocation: documentLocation,\n            documentHash: documentHash,\n            key: key,\n            users: users\n        });\n\n        for(uint256 i=0;i<users.length;i++){\n            storeUser[users[i]].docIndex.push(storeDocument.length);\n        }\n\n        storeDocument.push(newDoc);\n    }\n\n    /**\n     * @param index: document index\n     * @return Document object\n     */\n    function getDocument(uint256 index) public view returns(Document memory document){\n        return storeDocument[index];\n    }\n\n    /**\n     * @return all document index\n     */\n    function getAllDocIndex() public view returns(uint256[] memory docIndex){\n        return storeUser[msg.sender].docIndex;\n    }\n\n    /**\n     * @return total document\n     */\n    function getTotalDocuments() public view returns(uint256){\n        return storeDocument.length;\n    }\n\n    /**\n     * @param userAddress: User address for getting the public key\n     * @return public key of registered user\n     */\n    function getPublicKey(address userAddress) public view returns(string memory publicKey){\n        return storeUser[userAddress].publicKey;\n    }\n\n    /**\n     * @param docIndex: Document Index\n     * @return AesEncKey for a particular document\n     */\n    function getCipherKey(uint256 docIndex)public view returns(string memory cipherKey){\n        Document memory document = storeDocument[docIndex];\n        uint256 index;\n        for (uint256 i = 0;i<document.users.length;i++){\n            if(document.users[i]==msg.sender){\n                index =i;\n                break;\n            }\n        }\n        return document.key[index];\n    }\n\n    /**\n     * @return all registered Users address\n     */\n    function getAllUsers() public view returns(address[] memory users){\n        return registeredUsers;\n    }\n\n}\n",
  "sourcePath": "/home/shubham/ConsensoLabs/secure-docstore-contracts/contracts/MasterContract.sol",
  "compiler": {
    "name": "solc",
    "version": "0.5.16+commit.9c3226ce.Emscripten.clang"
  },
  "schemaVersion": "3.0.23",
  "updatedAt": "2020-09-09T05:17:07.506Z",
  "networkType": "ethereum",
  "devdoc": {
    "methods": {
      "getAllDocIndex()": {
        "return": "all document index"
      },
      "getAllUsers()": {
        "return": "all registered Users address"
      },
      "getCipherKey(uint256)": {
        "params": {
          "docIndex": ": Document Index"
        },
        "return": "AesEncKey for a particular document"
      },
      "getDocument(uint256)": {
        "params": {
          "index": ": document index"
        },
        "return": "Document object"
      },
      "getPublicKey(address)": {
        "params": {
          "userAddress": ": User address for getting the public key"
        },
        "return": "public key of registered user"
      },
      "getTotalDocuments()": {
        "return": "total document"
      },
      "registerUser(string,string)": {
        "details": "Register User",
        "params": {
          "userEmail": ": User mail id",
          "userName": ": User Name"
        }
      },
      "updatePublicKey(string)": {
        "details": "Update public key",
        "params": {
          "key": ": caller's public key"
        }
      },
      "uploadDocument(uint256,string,string,string[],address[])": {
        "details": "Upload document",
        "params": {
          "caseId": ": Case Id",
          "documentHash": ": doc Hash",
          "documentLocation": ": doc location",
          "key": ": Array to hold AesEnc Key for party's involved in document exchange",
          "users": ": Array to hold party's address"
        }
      }
    }
  },
  "userdoc": {
    "methods": {
      "uploadDocument(uint256,string,string,string[],address[])": {
        "notice": "Consider there is document exchange between PartyA and PartyB then key array will contain key for both party and the user array will contain address of both party.     * For each party present in the user array, the respected party's docIndex will be appended with the index where current document is stored"
      }
    }
  }
}