{
  "contractName": "MasterContract",
  "abi": [
    {
      "constant": true,
      "inputs": [
        {
          "internalType": "address",
          "name": "",
          "type": "address"
        }
      ],
      "name": "storeUser",
      "outputs": [
        {
          "internalType": "string",
          "name": "name",
          "type": "string"
        },
        {
          "internalType": "string",
          "name": "email",
          "type": "string"
        },
        {
          "internalType": "bool",
          "name": "status",
          "type": "bool"
        },
        {
          "internalType": "string",
          "name": "publicKey",
          "type": "string"
        }
      ],
      "payable": false,
      "stateMutability": "view",
      "type": "function"
    },
    {
      "constant": false,
      "inputs": [
        {
          "internalType": "string",
          "name": "userName",
          "type": "string"
        },
        {
          "internalType": "string",
          "name": "userEmail",
          "type": "string"
        },
        {
          "internalType": "string",
          "name": "publicKey",
          "type": "string"
        }
      ],
      "name": "registerUser",
      "outputs": [],
      "payable": false,
      "stateMutability": "nonpayable",
      "type": "function"
    },
    {
      "constant": false,
      "inputs": [
        {
          "internalType": "string",
          "name": "key",
          "type": "string"
        }
      ],
      "name": "updatePublicKey",
      "outputs": [],
      "payable": false,
      "stateMutability": "nonpayable",
      "type": "function"
    },
    {
      "constant": false,
      "inputs": [
        {
          "internalType": "bytes32",
          "name": "documentHash",
          "type": "bytes32"
        },
        {
          "internalType": "string",
          "name": "documentLocation",
          "type": "string"
        },
        {
          "internalType": "string[]",
          "name": "key",
          "type": "string[]"
        },
        {
          "internalType": "address[]",
          "name": "users",
          "type": "address[]"
        }
      ],
      "name": "uploadDocument",
      "outputs": [],
      "payable": false,
      "stateMutability": "nonpayable",
      "type": "function"
    },
    {
      "constant": true,
      "inputs": [
        {
          "internalType": "bytes32",
          "name": "documentHash",
          "type": "bytes32"
        }
      ],
      "name": "getDocument",
      "outputs": [
        {
          "components": [
            {
              "internalType": "string",
              "name": "documentLocation",
              "type": "string"
            },
            {
              "internalType": "bytes32",
              "name": "documentHash",
              "type": "bytes32"
            },
            {
              "internalType": "string[]",
              "name": "key",
              "type": "string[]"
            },
            {
              "internalType": "address[]",
              "name": "users",
              "type": "address[]"
            }
          ],
          "internalType": "struct MasterContract.Document",
          "name": "document",
          "type": "tuple"
        }
      ],
      "payable": false,
      "stateMutability": "view",
      "type": "function"
    },
    {
      "constant": true,
      "inputs": [],
      "name": "getAllDocument",
      "outputs": [
        {
          "internalType": "bytes32[]",
          "name": "docHash",
          "type": "bytes32[]"
        }
      ],
      "payable": false,
      "stateMutability": "view",
      "type": "function"
    },
    {
      "constant": true,
      "inputs": [
        {
          "internalType": "address",
          "name": "userAddress",
          "type": "address"
        }
      ],
      "name": "getPublicKey",
      "outputs": [
        {
          "internalType": "string",
          "name": "publicKey",
          "type": "string"
        }
      ],
      "payable": false,
      "stateMutability": "view",
      "type": "function"
    },
    {
      "constant": true,
      "inputs": [
        {
          "internalType": "bytes32",
          "name": "docHash",
          "type": "bytes32"
        }
      ],
      "name": "getCipherKey",
      "outputs": [
        {
          "internalType": "string",
          "name": "cipherKey",
          "type": "string"
        }
      ],
      "payable": false,
      "stateMutability": "view",
      "type": "function"
    },
    {
      "constant": true,
      "inputs": [],
      "name": "getAllUsers",
      "outputs": [
        {
          "internalType": "address[]",
          "name": "users",
          "type": "address[]"
        }
      ],
      "payable": false,
      "stateMutability": "view",
      "type": "function"
    }
  ],
  "bytecode": "0x608060405234801561001057600080fd5b50611d0a806100206000396000f3fe608060405234801561001057600080fd5b50600436106100935760003560e01c8063b10d6b4111610066578063b10d6b411461011e578063d00f74c51461014e578063d637dcfa1461017e578063d7cab3381461019a578063e2842d79146101cd57610093565b80631dc6fa5e1461009857806369b4da2d146100b4578063857cdbb8146100d0578063af045d6c14610100575b600080fd5b6100b260048036036100ad91908101906114d7565b6101eb565b005b6100ce60048036036100c9919081019061142c565b610244565b005b6100ea60048036036100e591908101906113da565b610389565b6040516100f7919061194f565b60405180910390f35b61010861046c565b604051610115919061192d565b60405180910390f35b61013860048036036101339190810190611403565b610503565b60405161014591906119eb565b60405180910390f35b61016860048036036101639190810190611403565b610753565b604051610175919061194f565b60405180910390f35b61019860048036036101939190810190611518565b610a37565b005b6101b460048036036101af91908101906113da565b610c8d565b6040516101c49493929190611971565b60405180910390f35b6101d5610e92565b6040516101e2919061190b565b60405180910390f35b806000803373ffffffffffffffffffffffffffffffffffffffff1673ffffffffffffffffffffffffffffffffffffffff1681526020019081526020016000206003019080519060200190610240929190610f20565b5050565b61024c610fa0565b604051806080016040528085815260200186815260200184815260200183815250905060008090505b82518110156103095760008084838151811061028d57fe5b602002602001015173ffffffffffffffffffffffffffffffffffffffff1673ffffffffffffffffffffffffffffffffffffffff1681526020019081526020016000206004018690806001815401808255809150509060018203906000526020600020016000909192909190915055508080600101915050610275565b508060026000878152602001908152602001600020600082015181600001908051906020019061033a929190610fcb565b5060208201518160010155604082015181600201908051906020019061036192919061104b565b50606082015181600301908051906020019061037e9291906110ab565b509050505050505050565b60606000808373ffffffffffffffffffffffffffffffffffffffff1673ffffffffffffffffffffffffffffffffffffffff1681526020019081526020016000206003018054600181600116156101000203166002900480601f0160208091040260200160405190810160405280929190818152602001828054600181600116156101000203166002900480156104605780601f1061043557610100808354040283529160200191610460565b820191906000526020600020905b81548152906001019060200180831161044357829003601f168201915b50505050509050919050565b60606000803373ffffffffffffffffffffffffffffffffffffffff1673ffffffffffffffffffffffffffffffffffffffff1681526020019081526020016000206004018054806020026020016040519081016040528092919081815260200182805480156104f957602002820191906000526020600020905b8154815260200190600101908083116104e5575b5050505050905090565b61050b610fa0565b60026000838152602001908152602001600020604051806080016040529081600082018054600181600116156101000203166002900480601f0160208091040260200160405190810160405280929190818152602001828054600181600116156101000203166002900480156105c25780601f10610597576101008083540402835291602001916105c2565b820191906000526020600020905b8154815290600101906020018083116105a557829003601f168201915b505050505081526020016001820154815260200160028201805480602002602001604051908101604052809291908181526020016000905b828210156106b6578382906000526020600020018054600181600116156101000203166002900480601f0160208091040260200160405190810160405280929190818152602001828054600181600116156101000203166002900480156106a25780601f10610677576101008083540402835291602001916106a2565b820191906000526020600020905b81548152906001019060200180831161068557829003601f168201915b5050505050815260200190600101906105fa565b5050505081526020016003820180548060200260200160405190810160405280929190818152602001828054801561074357602002820191906000526020600020905b8160009054906101000a900473ffffffffffffffffffffffffffffffffffffffff1673ffffffffffffffffffffffffffffffffffffffff16815260200190600101908083116106f9575b5050505050815250509050919050565b606061075d610fa0565b60026000848152602001908152602001600020604051806080016040529081600082018054600181600116156101000203166002900480601f0160208091040260200160405190810160405280929190818152602001828054600181600116156101000203166002900480156108145780601f106107e957610100808354040283529160200191610814565b820191906000526020600020905b8154815290600101906020018083116107f757829003601f168201915b505050505081526020016001820154815260200160028201805480602002602001604051908101604052809291908181526020016000905b82821015610908578382906000526020600020018054600181600116156101000203166002900480601f0160208091040260200160405190810160405280929190818152602001828054600181600116156101000203166002900480156108f45780601f106108c9576101008083540402835291602001916108f4565b820191906000526020600020905b8154815290600101906020018083116108d757829003601f168201915b50505050508152602001906001019061084c565b5050505081526020016003820180548060200260200160405190810160405280929190818152602001828054801561099557602002820191906000526020600020905b8160009054906101000a900473ffffffffffffffffffffffffffffffffffffffff1673ffffffffffffffffffffffffffffffffffffffff168152602001906001019080831161094b575b5050505050815250509050600080600090505b826060015151811015610a15573373ffffffffffffffffffffffffffffffffffffffff16836060015182815181106109dc57fe5b602002602001015173ffffffffffffffffffffffffffffffffffffffff161415610a0857809150610a15565b80806001019150506109a8565b5081604001518181518110610a2657fe5b602002602001015192505050919050565b6000803373ffffffffffffffffffffffffffffffffffffffff1673ffffffffffffffffffffffffffffffffffffffff16815260200190815260200160002060020160009054906101000a900460ff1615610ac6576040517f08c379a0000000000000000000000000000000000000000000000000000000008152600401610abd906119cb565b60405180910390fd5b826000803373ffffffffffffffffffffffffffffffffffffffff1673ffffffffffffffffffffffffffffffffffffffff1681526020019081526020016000206000019080519060200190610b1b929190610f20565b50816000803373ffffffffffffffffffffffffffffffffffffffff1673ffffffffffffffffffffffffffffffffffffffff1681526020019081526020016000206001019080519060200190610b71929190610f20565b50806000803373ffffffffffffffffffffffffffffffffffffffff1673ffffffffffffffffffffffffffffffffffffffff1681526020019081526020016000206003019080519060200190610bc7929190610f20565b5060016000803373ffffffffffffffffffffffffffffffffffffffff1673ffffffffffffffffffffffffffffffffffffffff16815260200190815260200160002060020160006101000a81548160ff02191690831515021790555060013390806001815401808255809150509060018203906000526020600020016000909192909190916101000a81548173ffffffffffffffffffffffffffffffffffffffff021916908373ffffffffffffffffffffffffffffffffffffffff16021790555050505050565b6000602052806000526040600020600091509050806000018054600181600116156101000203166002900480601f016020809104026020016040519081016040528092919081815260200182805460018160011615610100020316600290048015610d395780601f10610d0e57610100808354040283529160200191610d39565b820191906000526020600020905b815481529060010190602001808311610d1c57829003601f168201915b505050505090806001018054600181600116156101000203166002900480601f016020809104026020016040519081016040528092919081815260200182805460018160011615610100020316600290048015610dd75780601f10610dac57610100808354040283529160200191610dd7565b820191906000526020600020905b815481529060010190602001808311610dba57829003601f168201915b5050505050908060020160009054906101000a900460ff1690806003018054600181600116156101000203166002900480601f016020809104026020016040519081016040528092919081815260200182805460018160011615610100020316600290048015610e885780601f10610e5d57610100808354040283529160200191610e88565b820191906000526020600020905b815481529060010190602001808311610e6b57829003601f168201915b5050505050905084565b60606001805480602002602001604051908101604052809291908181526020018280548015610f1657602002820191906000526020600020905b8160009054906101000a900473ffffffffffffffffffffffffffffffffffffffff1673ffffffffffffffffffffffffffffffffffffffff1681526020019060010190808311610ecc575b5050505050905090565b828054600181600116156101000203166002900490600052602060002090601f016020900481019282601f10610f6157805160ff1916838001178555610f8f565b82800160010185558215610f8f579182015b82811115610f8e578251825591602001919060010190610f73565b5b509050610f9c9190611135565b5090565b6040518060800160405280606081526020016000801916815260200160608152602001606081525090565b828054600181600116156101000203166002900490600052602060002090601f016020900481019282601f1061100c57805160ff191683800117855561103a565b8280016001018555821561103a579182015b8281111561103957825182559160200191906001019061101e565b5b5090506110479190611135565b5090565b82805482825590600052602060002090810192821561109a579160200282015b82811115611099578251829080519060200190611089929190610fcb565b509160200191906001019061106b565b5b5090506110a7919061115a565b5090565b828054828255906000526020600020908101928215611124579160200282015b828111156111235782518260006101000a81548173ffffffffffffffffffffffffffffffffffffffff021916908373ffffffffffffffffffffffffffffffffffffffff160217905550916020019190600101906110cb565b5b5090506111319190611186565b5090565b61115791905b8082111561115357600081600090555060010161113b565b5090565b90565b61118391905b8082111561117f576000818161117691906111c9565b50600101611160565b5090565b90565b6111c691905b808211156111c257600081816101000a81549073ffffffffffffffffffffffffffffffffffffffff02191690555060010161118c565b5090565b90565b50805460018160011615610100020316600290046000825580601f106111ef575061120e565b601f01602090049060005260206000209081019061120d9190611135565b5b50565b60008135905061122081611c99565b92915050565b600082601f83011261123757600080fd5b813561124a61124582611a3a565b611a0d565b9150818183526020840193506020810190508385602084028201111561126f57600080fd5b60005b8381101561129f57816112858882611211565b845260208401935060208301925050600181019050611272565b5050505092915050565b600082601f8301126112ba57600080fd5b81356112cd6112c882611a62565b611a0d565b9150818183526020840193506020810190508360005b8381101561131357813586016112f98882611332565b8452602084019350602083019250506001810190506112e3565b5050505092915050565b60008135905061132c81611cb0565b92915050565b600082601f83011261134357600080fd5b813561135661135182611a8a565b611a0d565b9150808252602083016020830185838301111561137257600080fd5b61137d838284611c46565b50505092915050565b600082601f83011261139757600080fd5b81356113aa6113a582611ab6565b611a0d565b915080825260208301602083018583830111156113c657600080fd5b6113d1838284611c46565b50505092915050565b6000602082840312156113ec57600080fd5b60006113fa84828501611211565b91505092915050565b60006020828403121561141557600080fd5b60006114238482850161131d565b91505092915050565b6000806000806080858703121561144257600080fd5b60006114508782880161131d565b945050602085013567ffffffffffffffff81111561146d57600080fd5b61147987828801611386565b935050604085013567ffffffffffffffff81111561149657600080fd5b6114a2878288016112a9565b925050606085013567ffffffffffffffff8111156114bf57600080fd5b6114cb87828801611226565b91505092959194509250565b6000602082840312156114e957600080fd5b600082013567ffffffffffffffff81111561150357600080fd5b61150f84828501611386565b91505092915050565b60008060006060848603121561152d57600080fd5b600084013567ffffffffffffffff81111561154757600080fd5b61155386828701611386565b935050602084013567ffffffffffffffff81111561157057600080fd5b61157c86828701611386565b925050604084013567ffffffffffffffff81111561159957600080fd5b6115a586828701611386565b9150509250925092565b60006115bb83836115f3565b60208301905092915050565b60006115d383836117a0565b60208301905092915050565b60006115eb83836117e8565b905092915050565b6115fc81611bfe565b82525050565b600061160d82611b2d565b6116178185611ba9565b935061162283611af2565b8060005b8381101561165357815161163a88826115af565b975061164583611b71565b925050600181019050611626565b5085935050505092915050565b600061166b82611b22565b6116758185611b98565b935061168083611ae2565b8060005b838110156116b157815161169888826115af565b97506116a383611b64565b925050600181019050611684565b5085935050505092915050565b60006116c982611b38565b6116d38185611bba565b93506116de83611b02565b8060005b8381101561170f5781516116f688826115c7565b975061170183611b7e565b9250506001810190506116e2565b5085935050505092915050565b600061172782611b43565b6117318185611bcb565b93508360208202850161174385611b12565b8060005b8581101561177f578484038952815161176085826115df565b945061176b83611b8b565b925060208a01995050600181019050611747565b50829750879550505050505092915050565b61179a81611c10565b82525050565b6117a981611c1c565b82525050565b60006117ba82611b59565b6117c48185611bed565b93506117d4818560208601611c55565b6117dd81611c88565b840191505092915050565b60006117f382611b4e565b6117fd8185611bdc565b935061180d818560208601611c55565b61181681611c88565b840191505092915050565b600061182c82611b4e565b6118368185611bed565b9350611846818560208601611c55565b61184f81611c88565b840191505092915050565b6000611867602083611bed565b91507f53686f756c64206e6f742062652072656769737465726564206265666f7265216000830152602082019050919050565b600060808301600083015184820360008601526118b782826117e8565b91505060208301516118cc60208601826117a0565b50604083015184820360408601526118e4828261171c565b915050606083015184820360608601526118fe8282611660565b9150508091505092915050565b600060208201905081810360008301526119258184611602565b905092915050565b6000602082019050818103600083015261194781846116be565b905092915050565b6000602082019050818103600083015261196981846117af565b905092915050565b6000608082019050818103600083015261198b8187611821565b9050818103602083015261199f8186611821565b90506119ae6040830185611791565b81810360608301526119c08184611821565b905095945050505050565b600060208201905081810360008301526119e48161185a565b9050919050565b60006020820190508181036000830152611a05818461189a565b905092915050565b6000604051905081810181811067ffffffffffffffff82111715611a3057600080fd5b8060405250919050565b600067ffffffffffffffff821115611a5157600080fd5b602082029050602081019050919050565b600067ffffffffffffffff821115611a7957600080fd5b602082029050602081019050919050565b600067ffffffffffffffff821115611aa157600080fd5b601f19601f8301169050602081019050919050565b600067ffffffffffffffff821115611acd57600080fd5b601f19601f8301169050602081019050919050565b6000819050602082019050919050565b6000819050602082019050919050565b6000819050602082019050919050565b6000819050602082019050919050565b600081519050919050565b600081519050919050565b600081519050919050565b600081519050919050565b600081519050919050565b600081519050919050565b6000602082019050919050565b6000602082019050919050565b6000602082019050919050565b6000602082019050919050565b600082825260208201905092915050565b600082825260208201905092915050565b600082825260208201905092915050565b600082825260208201905092915050565b600082825260208201905092915050565b600082825260208201905092915050565b6000611c0982611c26565b9050919050565b60008115159050919050565b6000819050919050565b600073ffffffffffffffffffffffffffffffffffffffff82169050919050565b82818337600083830152505050565b60005b83811015611c73578082015181840152602081019050611c58565b83811115611c82576000848401525b50505050565b6000601f19601f8301169050919050565b611ca281611bfe565b8114611cad57600080fd5b50565b611cb981611c1c565b8114611cc457600080fd5b5056fea365627a7a72315820274c8d536d380de9b4676c07d3be6da2f9a31cc825cabb5c141f9a9fbb5a905f6c6578706572696d656e74616cf564736f6c63430005100040",
  "source": "pragma solidity >=0.5.0 <0.7.0;\npragma experimental ABIEncoderV2;\n\ncontract MasterContract {\n\n    struct UserSchema {\n        string name;\n        string email;\n        bool status;\n        string publicKey;\n        bytes32[] documentHash;\n    }\n\n    struct Document{\n        string documentLocation;\n        bytes32 documentHash;\n        string[] key;\n        address[] users;\n    }\n\n    // Map to store all the registered users\n    mapping(address=>UserSchema) public storeUser;\n\n    // array to store registered users address\n    address[] registeredUsers;\n\n    //mapping of docHash\n    mapping(bytes32 => Document) storeDocument;\n\n    /**\n     * @dev Register User\n     * @param userName: User Name\n     * @param userEmail: User mail id\n     */\n    function registerUser(\n        string memory userName,\n        string memory userEmail,\n        string memory publicKey\n    ) public{\n        require(!storeUser[msg.sender].status, \"Should not be registered before!\");\n\n        storeUser[msg.sender].name = userName;\n        storeUser[msg.sender].email = userEmail;\n        storeUser[msg.sender].publicKey = publicKey;\n        storeUser[msg.sender].status = true;\n        registeredUsers.push(msg.sender);\n    }\n\n    /**\n     * @dev Update public key\n     * @param key: caller's public key\n     */\n    function updatePublicKey(string memory key) public{\n        storeUser[msg.sender].publicKey = key;\n    }\n\n    /**\n     * @dev Upload document\n     * @param documentHash: doc Hash\n     * @param documentLocation: doc location\n     * @param key: Array to hold AesEnc Key for party's involved in document exchange\n     * @param users: Array to hold party's address\n     * @notice Consider there is document exchange between PartyA and PartyB then key array will\n     * contain key for both party and the user array will contain address of both party.\n     *\n     * For each party present in the user array, the respected party's docIndex will be appended with\n     * the index where current document is stored\n     */\n    function uploadDocument(\n        bytes32 documentHash,\n        string memory documentLocation,\n        string[] memory key,\n        address[] memory users\n    ) public {\n        Document memory newDoc = Document({\n            documentLocation: documentLocation,\n            documentHash: documentHash,\n            key: key,\n            users: users\n        });\n\n        for(uint256 i=0;i<users.length;i++){\n            storeUser[users[i]].documentHash.push(documentHash);\n        }\n        storeDocument[documentHash] = newDoc;\n    }\n\n    /**\n     * @param documentHash: document hash\n     * @return Document object\n     */\n    function getDocument(bytes32 documentHash) public view returns(Document memory document){\n        return storeDocument[documentHash];\n    }\n\n    function getAllDocument() public view returns(bytes32[] memory docHash){\n        return storeUser[msg.sender].documentHash;\n    }\n\n    /**\n     * @param userAddress: User address for getting the public key\n     * @return public key of registered user\n     */\n    function getPublicKey(address userAddress) public view returns(string memory publicKey){\n        return storeUser[userAddress].publicKey;\n    }\n\n    /**\n     * @param docHash: Document Hash\n     * @return AesEncKey for a particular document\n     */\n    function getCipherKey(bytes32 docHash)public view returns(string memory cipherKey){\n        Document memory document = storeDocument[docHash];\n        uint256 index;\n        for (uint256 i = 0;i<document.users.length;i++){\n            if(document.users[i]==msg.sender){\n                index =i;\n                break;\n            }\n        }\n        return document.key[index];\n    }\n\n    /**\n     * @return all registered Users address\n     */\n    function getAllUsers() public view returns(address[] memory users){\n        return registeredUsers;\n    }\n\n}\n",
  "sourcePath": "/home/shubham/ConsensoLabs/secure-docstore-contracts/contracts/MasterContract.sol",
  "compiler": {
    "name": "solc",
    "version": "0.5.16+commit.9c3226ce.Emscripten.clang"
  },
  "schemaVersion": "3.3.1",
  "updatedAt": "2020-11-03T13:49:24.766Z",
  "networkType": "ethereum",
  "devdoc": {
    "methods": {
      "getAllUsers()": {
        "return": "all registered Users address"
      },
      "getCipherKey(bytes32)": {
        "params": {
          "docHash": ": Document Hash"
        },
        "return": "AesEncKey for a particular document"
      },
      "getDocument(bytes32)": {
        "params": {
          "documentHash": ": document hash"
        },
        "return": "Document object"
      },
      "getPublicKey(address)": {
        "params": {
          "userAddress": ": User address for getting the public key"
        },
        "return": "public key of registered user"
      },
      "registerUser(string,string,string)": {
        "details": "Register User",
        "params": {
          "userEmail": ": User mail id",
          "userName": ": User Name"
        }
      },
      "updatePublicKey(string)": {
        "details": "Update public key",
        "params": {
          "key": ": caller's public key"
        }
      },
      "uploadDocument(bytes32,string,string[],address[])": {
        "details": "Upload document",
        "params": {
          "documentHash": ": doc Hash",
          "documentLocation": ": doc location",
          "key": ": Array to hold AesEnc Key for party's involved in document exchange",
          "users": ": Array to hold party's address"
        }
      }
    }
  },
  "userdoc": {
    "methods": {
      "uploadDocument(bytes32,string,string[],address[])": {
        "notice": "Consider there is document exchange between PartyA and PartyB then key array will contain key for both party and the user array will contain address of both party.     * For each party present in the user array, the respected party's docIndex will be appended with the index where current document is stored"
      }
    }
  }
}